:100000000C9434000C9451000C9451000C94510049
:100010000C9451000C9451000C9451000C9451001C
:100020000C9451000C9451000C9451000C9451000C
:100030000C9451000C9451000C9451000C945100FC
:100040000C9451000C9451000C945A010C945100E2
:100050000C9491010C9451000C9451000C9451009B
:100060000C9451000C94510011241FBECFEFD8E026
:10007000DEBFCDBF11E0A0E0B1E0E2EAF3E002C0F4
:1000800005900D92A230B107D9F721E0A2E0B1E0CE
:1000900001C01D92AB32B207E1F70E9453000C94ED
:1000A000CF010C9400008AE00E945D00789483E008
:1000B0000E9469000E946D00FACFE2E0F1E08083C7
:1000C00011820E9497006BE070E080E090E00C9459
:1000D000A00181118093030108958FE39CE90197AA
:1000E000F1F700C0000080910301882339F08330CC
:1000F000A1F760E08FEF0E94CC00EFCF08954FEFA3
:1001000060E08BE290E00E94440140E061E08BE21D
:1001100090E00E9444014FEF62E08BE290E00E9489
:10012000440140E063E08BE290E00C94440141E044
:1001300062E08BE290E00E941A0141E063E08BE212
:1001400090E00E941A0141E060E085E290E00E94A8
:100150001A0141E061E085E290E00E941A0141E06D
:1001600062E085E290E00E941A0141E063E085E2EE
:1001700090E00E941A0141E066E08BE290E00E946C
:100180001A0141E065E08BE290E00E941A01E5E08F
:10019000F1E0108211820895CF93C82F6623C9F031
:1001A00040E060E08BE290E00E9444014FEF61E0AC
:1001B0008BE290E00E94440140E062E08BE290E03C
:1001C0000E9444014FEF63E08BE290E00E94440103
:1001D00002C00E947F00C0930501C093060185E61E
:1001E0000E94B8018EE60E94B80187E60E94B8011D
:1001F00081E30E94B8018AE00E94B8014FEF66E0F7
:100200008BE290E00E9444014FEF65E08BE290E0CA
:100210000E94440185E60E94B8018EE60E94B80162
:1002200087E60E94B80182E30E94B8018AE0CF917C
:100230000C94B801CF93DF93DC01EC018A9121E0AB
:1002400030E0062E01C0220F0A94EAF7209582239F
:1002500088838881E42FE170062E01C0EE0F0A9496
:10026000EAF7E82BE8838C9128232C938C91942F28
:100270009695492F01C0440F6A95EAF7482B4C9395
:100280000000DF91CF910895FC01DC0111978C9162
:1002900021E030E001C0220F6A95EAF782239081C5
:1002A0002823209529232083908148234170492BBE
:1002B000408308951F920F920FB60F9211248F93CF
:1002C0009F93EF93FF93E0910701F09108018091D4
:1002D000C600E55FFE4F80838091090190910A017D
:1002E000019690930A0180930901809107019091F2
:1002F00008010196909308018093070180910701FE
:1003000090910801809720F0109208011092070147
:10031000FF91EF919F918F910F900FBE0F901F90C3
:1003200018951F920F920FB60F9211248F9381E0B0
:10033000809300018F910F900FBE0F901F90189522
:100340000F931F938B019C0100271F7022273327D7
:10035000012F122F232F33270093C5006093C40071
:10036000E1ECF0E08081886D80831F910F9108950A
:10037000CF93C82F4FEF64E08BE290E00E944401DE
:10038000809100018823E1F310920001C093C60020
:1003900040E064E08BE290E0CF910C944401F8944B
:0203A000FFCF8D
:0203A200010058
:00000001FF
